{
  "contractName": "AuctionContract",
  "abi": [
    {
      "inputs": [],
      "stateMutability": "nonpayable",
      "type": "constructor"
    },
    {
      "anonymous": false,
      "inputs": [
        {
          "indexed": false,
          "internalType": "address",
          "name": "bidder",
          "type": "address"
        },
        {
          "indexed": false,
          "internalType": "uint256",
          "name": "bid",
          "type": "uint256"
        },
        {
          "indexed": false,
          "internalType": "address",
          "name": "highestBidder",
          "type": "address"
        },
        {
          "indexed": false,
          "internalType": "uint256",
          "name": "highestBid",
          "type": "uint256"
        }
      ],
      "name": "LogBid",
      "type": "event"
    },
    {
      "inputs": [],
      "name": "deployerAddress",
      "outputs": [
        {
          "internalType": "address",
          "name": "",
          "type": "address"
        }
      ],
      "stateMutability": "view",
      "type": "function",
      "constant": true
    },
    {
      "inputs": [],
      "name": "endBlock",
      "outputs": [
        {
          "internalType": "uint256",
          "name": "",
          "type": "uint256"
        }
      ],
      "stateMutability": "view",
      "type": "function",
      "constant": true
    },
    {
      "inputs": [
        {
          "internalType": "address",
          "name": "",
          "type": "address"
        }
      ],
      "name": "fundsByBidder",
      "outputs": [
        {
          "internalType": "uint256",
          "name": "",
          "type": "uint256"
        }
      ],
      "stateMutability": "view",
      "type": "function",
      "constant": true
    },
    {
      "inputs": [],
      "name": "highestBidderAddress",
      "outputs": [
        {
          "internalType": "address",
          "name": "",
          "type": "address"
        }
      ],
      "stateMutability": "view",
      "type": "function",
      "constant": true
    },
    {
      "inputs": [],
      "name": "highestBindingBid",
      "outputs": [
        {
          "internalType": "uint256",
          "name": "",
          "type": "uint256"
        }
      ],
      "stateMutability": "view",
      "type": "function",
      "constant": true
    },
    {
      "inputs": [],
      "name": "ipfsHash",
      "outputs": [
        {
          "internalType": "string",
          "name": "",
          "type": "string"
        }
      ],
      "stateMutability": "view",
      "type": "function",
      "constant": true
    },
    {
      "inputs": [],
      "name": "newAuctionReady",
      "outputs": [
        {
          "internalType": "bool",
          "name": "",
          "type": "bool"
        }
      ],
      "stateMutability": "view",
      "type": "function",
      "constant": true
    },
    {
      "inputs": [],
      "name": "owner",
      "outputs": [
        {
          "internalType": "address",
          "name": "",
          "type": "address"
        }
      ],
      "stateMutability": "view",
      "type": "function",
      "constant": true
    },
    {
      "inputs": [],
      "name": "startBlock",
      "outputs": [
        {
          "internalType": "uint256",
          "name": "",
          "type": "uint256"
        }
      ],
      "stateMutability": "view",
      "type": "function",
      "constant": true
    },
    {
      "inputs": [],
      "name": "tokenId",
      "outputs": [
        {
          "internalType": "uint256",
          "name": "",
          "type": "uint256"
        }
      ],
      "stateMutability": "view",
      "type": "function",
      "constant": true
    },
    {
      "inputs": [
        {
          "internalType": "address",
          "name": "_owner",
          "type": "address"
        },
        {
          "internalType": "address",
          "name": "erc20TokenAddress",
          "type": "address"
        },
        {
          "internalType": "address",
          "name": "erc721Address",
          "type": "address"
        },
        {
          "internalType": "uint256",
          "name": "_duration",
          "type": "uint256"
        },
        {
          "internalType": "uint256",
          "name": "minBid",
          "type": "uint256"
        },
        {
          "internalType": "uint256",
          "name": "_tokenId",
          "type": "uint256"
        }
      ],
      "name": "Auction",
      "outputs": [],
      "stateMutability": "nonpayable",
      "type": "function"
    },
    {
      "inputs": [
        {
          "internalType": "uint256",
          "name": "bidAmount",
          "type": "uint256"
        }
      ],
      "name": "placeBid",
      "outputs": [
        {
          "internalType": "bool",
          "name": "success",
          "type": "bool"
        }
      ],
      "stateMutability": "payable",
      "type": "function",
      "payable": true
    },
    {
      "inputs": [],
      "name": "endBid",
      "outputs": [
        {
          "internalType": "bool",
          "name": "success",
          "type": "bool"
        }
      ],
      "stateMutability": "nonpayable",
      "type": "function"
    }
  ],
  "bytecode": "0x60806040526001600b60006101000a81548160ff0219169083151502179055506000600b60016101000a81548160ff02191690831515021790555034801561004657600080fd5b5033600560006101000a81548173ffffffffffffffffffffffffffffffffffffffff021916908373ffffffffffffffffffffffffffffffffffffffff1602179055506117bd806100976000396000f3fe6080604052600436106100c25760003560e01c80638da5cb5b1161007f578063ce10cf8011610059578063ce10cf801461024d578063efdee94f1461028a578063f5b56c56146102b5578063f85fe8ad146102e0576100c2565b80638da5cb5b146101c75780639979ef45146101f2578063c623674f14610222576100c2565b80630135ce02146100c757806301cbb7e6146100f0578063083c63231461011b57806317d70f7c1461014657806348cd4cb1146101715780638bae720b1461019c575b600080fd5b3480156100d357600080fd5b506100ee60048036038101906100e99190610ec2565b61030b565b005b3480156100fc57600080fd5b506101056106d0565b6040516101129190611231565b60405180910390f35b34801561012757600080fd5b506101306106e3565b60405161013d91906113ae565b60405180910390f35b34801561015257600080fd5b5061015b6106e9565b60405161016891906113ae565b60405180910390f35b34801561017d57600080fd5b506101866106ef565b60405161019391906113ae565b60405180910390f35b3480156101a857600080fd5b506101b16106f5565b6040516101be9190611231565b60405180910390f35b3480156101d357600080fd5b506101dc61098f565b6040516101e9919061119a565b60405180910390f35b61020c60048036038101906102079190610f7c565b6109b3565b6040516102199190611231565b60405180910390f35b34801561022e57600080fd5b50610237610d07565b604051610244919061124c565b60405180910390f35b34801561025957600080fd5b50610274600480360381019061026f9190610e68565b610d95565b60405161028191906113ae565b60405180910390f35b34801561029657600080fd5b5061029f610dad565b6040516102ac919061119a565b60405180910390f35b3480156102c157600080fd5b506102ca610dd3565b6040516102d791906113ae565b60405180910390f35b3480156102ec57600080fd5b506102f5610dd9565b604051610302919061119a565b60405180910390f35b600560009054906101000a900473ffffffffffffffffffffffffffffffffffffffff1673ffffffffffffffffffffffffffffffffffffffff163373ffffffffffffffffffffffffffffffffffffffff161461039b576040517f08c379a0000000000000000000000000000000000000000000000000000000008152600401610392906112ce565b60405180910390fd5b600b60009054906101000a900460ff166103ea576040517f08c379a00000000000000000000000000000000000000000000000000000000081526004016103e19061126e565b60405180910390fd5b603c83101561042e576040517f08c379a00000000000000000000000000000000000000000000000000000000081526004016104259061130e565b60405180910390fd5b6000600b60006101000a81548160ff0219169083151502179055506000600b60016101000a81548160ff02191690831515021790555084600660006101000a81548173ffffffffffffffffffffffffffffffffffffffff021916908373ffffffffffffffffffffffffffffffffffffffff16021790555083600760006101000a81548173ffffffffffffffffffffffffffffffffffffffff021916908373ffffffffffffffffffffffffffffffffffffffff1602179055508573ffffffffffffffffffffffffffffffffffffffff16600760009054906101000a900473ffffffffffffffffffffffffffffffffffffffff1673ffffffffffffffffffffffffffffffffffffffff16636352211e836040518263ffffffff1660e01b815260040161055891906113ae565b60206040518083038186803b15801561057057600080fd5b505afa158015610584573d6000803e3d6000fd5b505050506040513d601f19601f820116820180604052508101906105a89190610e95565b73ffffffffffffffffffffffffffffffffffffffff16146105fe576040517f08c379a00000000000000000000000000000000000000000000000000000000081526004016105f59061138e565b60405180910390fd5b856000806101000a81548173ffffffffffffffffffffffffffffffffffffffff021916908373ffffffffffffffffffffffffffffffffffffffff160217905550426001819055508260015461065391906113e5565b60028190555081600a8190555060008054906101000a900473ffffffffffffffffffffffffffffffffffffffff16600860006101000a81548173ffffffffffffffffffffffffffffffffffffffff021916908373ffffffffffffffffffffffffffffffffffffffff16021790555080600481905550505050505050565b600b60009054906101000a900460ff1681565b60025481565b60045481565b60015481565b6000600560009054906101000a900473ffffffffffffffffffffffffffffffffffffffff1673ffffffffffffffffffffffffffffffffffffffff163373ffffffffffffffffffffffffffffffffffffffff1614610787576040517f08c379a000000000000000000000000000000000000000000000000000000000815260040161077e906112ce565b60405180910390fd5b600660009054906101000a900473ffffffffffffffffffffffffffffffffffffffff1673ffffffffffffffffffffffffffffffffffffffff166323b872dd600860009054906101000a900473ffffffffffffffffffffffffffffffffffffffff1660008054906101000a900473ffffffffffffffffffffffffffffffffffffffff16600a546040518463ffffffff1660e01b815260040161082a939291906111b5565b602060405180830381600087803b15801561084457600080fd5b505af1158015610858573d6000803e3d6000fd5b505050506040513d601f19601f8201168201806040525081019061087c9190610f4f565b50600760009054906101000a900473ffffffffffffffffffffffffffffffffffffffff1673ffffffffffffffffffffffffffffffffffffffff166323b872dd60008054906101000a900473ffffffffffffffffffffffffffffffffffffffff16600860009054906101000a900473ffffffffffffffffffffffffffffffffffffffff166004546040518463ffffffff1660e01b8152600401610920939291906111b5565b600060405180830381600087803b15801561093a57600080fd5b505af115801561094e573d6000803e3d6000fd5b505050506001600b60016101000a81548160ff0219169083151502179055506001600b60006101000a81548160ff0219169083151502179055506001905090565b60008054906101000a900473ffffffffffffffffffffffffffffffffffffffff1681565b60006001544210156109fa576040517f08c379a00000000000000000000000000000000000000000000000000000000081526004016109f19061132e565b60405180910390fd5b600254421115610a3f576040517f08c379a0000000000000000000000000000000000000000000000000000000008152600401610a36906112ee565b60405180910390fd5b60001515600b60019054906101000a900460ff16151514610a95576040517f08c379a0000000000000000000000000000000000000000000000000000000008152600401610a8c9061136e565b60405180910390fd5b60008054906101000a900473ffffffffffffffffffffffffffffffffffffffff1673ffffffffffffffffffffffffffffffffffffffff163373ffffffffffffffffffffffffffffffffffffffff161415610b24576040517f08c379a0000000000000000000000000000000000000000000000000000000008152600401610b1b9061134e565b60405180910390fd5b7f49e60d8d833f1250f6ede154509b047fe77c1eae57655e8176675b5f91af7b0a3383600860009054906101000a900473ffffffffffffffffffffffffffffffffffffffff16600a54604051610b7d94939291906111ec565b60405180910390a181600a5410610bc9576040517f08c379a0000000000000000000000000000000000000000000000000000000008152600401610bc09061128e565b60405180910390fd5b81600660009054906101000a900473ffffffffffffffffffffffffffffffffffffffff1673ffffffffffffffffffffffffffffffffffffffff166370a08231336040518263ffffffff1660e01b8152600401610c25919061119a565b60206040518083038186803b158015610c3d57600080fd5b505afa158015610c51573d6000803e3d6000fd5b505050506040513d601f19601f82011682018060405250810190610c759190610fa9565b1015610cb6576040517f08c379a0000000000000000000000000000000000000000000000000000000008152600401610cad906112ae565b60405180910390fd5b81600a8190555033600860006101000a81548173ffffffffffffffffffffffffffffffffffffffff021916908373ffffffffffffffffffffffffffffffffffffffff16021790555060019050919050565b60038054610d14906114b6565b80601f0160208091040260200160405190810160405280929190818152602001828054610d40906114b6565b8015610d8d5780601f10610d6257610100808354040283529160200191610d8d565b820191906000526020600020905b815481529060010190602001808311610d7057829003601f168201915b505050505081565b60096020528060005260406000206000915090505481565b600560009054906101000a900473ffffffffffffffffffffffffffffffffffffffff1681565b600a5481565b600860009054906101000a900473ffffffffffffffffffffffffffffffffffffffff1681565b600081359050610e0e81611742565b92915050565b600081519050610e2381611742565b92915050565b600081519050610e3881611759565b92915050565b600081359050610e4d81611770565b92915050565b600081519050610e6281611770565b92915050565b600060208284031215610e7e57610e7d611546565b5b6000610e8c84828501610dff565b91505092915050565b600060208284031215610eab57610eaa611546565b5b6000610eb984828501610e14565b91505092915050565b60008060008060008060c08789031215610edf57610ede611546565b5b6000610eed89828a01610dff565b9650506020610efe89828a01610dff565b9550506040610f0f89828a01610dff565b9450506060610f2089828a01610e3e565b9350506080610f3189828a01610e3e565b92505060a0610f4289828a01610e3e565b9150509295509295509295565b600060208284031215610f6557610f64611546565b5b6000610f7384828501610e29565b91505092915050565b600060208284031215610f9257610f91611546565b5b6000610fa084828501610e3e565b91505092915050565b600060208284031215610fbf57610fbe611546565b5b6000610fcd84828501610e53565b91505092915050565b610fdf8161143b565b82525050565b610fee8161144d565b82525050565b6000610fff826113c9565b61100981856113d4565b9350611019818560208601611483565b6110228161154b565b840191505092915050565b600061103a601b836113d4565b91506110458261155c565b602082019050919050565b600061105d6026836113d4565b915061106882611585565b604082019050919050565b60006110806013836113d4565b915061108b826115d4565b602082019050919050565b60006110a3600d836113d4565b91506110ae826115fd565b602082019050919050565b60006110c66012836113d4565b91506110d182611626565b602082019050919050565b60006110e96031836113d4565b91506110f48261164f565b604082019050919050565b600061110c6013836113d4565b91506111178261169e565b602082019050919050565b600061112f6010836113d4565b915061113a826116c7565b602082019050919050565b6000611152600d836113d4565b915061115d826116f0565b602082019050919050565b6000611175601e836113d4565b915061118082611719565b602082019050919050565b61119481611479565b82525050565b60006020820190506111af6000830184610fd6565b92915050565b60006060820190506111ca6000830186610fd6565b6111d76020830185610fd6565b6111e4604083018461118b565b949350505050565b60006080820190506112016000830187610fd6565b61120e602083018661118b565b61121b6040830185610fd6565b611228606083018461118b565b95945050505050565b60006020820190506112466000830184610fe5565b92915050565b600060208201905081810360008301526112668184610ff4565b905092915050565b600060208201905081810360008301526112878161102d565b9050919050565b600060208201905081810360008301526112a781611050565b9050919050565b600060208201905081810360008301526112c781611073565b9050919050565b600060208201905081810360008301526112e781611096565b9050919050565b60006020820190508181036000830152611307816110b9565b9050919050565b60006020820190508181036000830152611327816110dc565b9050919050565b60006020820190508181036000830152611347816110ff565b9050919050565b6000602082019050818103600083015261136781611122565b9050919050565b6000602082019050818103600083015261138781611145565b9050919050565b600060208201905081810360008301526113a781611168565b9050919050565b60006020820190506113c3600083018461118b565b92915050565b600081519050919050565b600082825260208201905092915050565b60006113f082611479565b91506113fb83611479565b9250827fffffffffffffffffffffffffffffffffffffffffffffffffffffffffffffffff038211156114305761142f6114e8565b5b828201905092915050565b600061144682611459565b9050919050565b60008115159050919050565b600073ffffffffffffffffffffffffffffffffffffffff82169050919050565b6000819050919050565b60005b838110156114a1578082015181840152602081019050611486565b838111156114b0576000848401525b50505050565b600060028204905060018216806114ce57607f821691505b602082108114156114e2576114e1611517565b5b50919050565b7f4e487b7100000000000000000000000000000000000000000000000000000000600052601160045260246000fd5b7f4e487b7100000000000000000000000000000000000000000000000000000000600052602260045260246000fd5b600080fd5b6000601f19601f8301169050919050565b7f416e6f746865722041756374696f6e20696e2070726f67726573730000000000600082015250565b7f426964204c6f776572207468616e206f7220657175616c20746f20686967686560008201527f7374206269640000000000000000000000000000000000000000000000000000602082015250565b7f42616c616e6365206e6f742070726573656e7400000000000000000000000000600082015250565b7f4e6f7420746865206f776e657200000000000000000000000000000000000000600082015250565b7f41756374696f6e2074696d6520656e6465640000000000000000000000000000600082015250565b7f4475726174696f6e20666f722041756374696f6e2063616e6e6f74206265206c60008201527f657373207468616e2061206d696e757465000000000000000000000000000000602082015250565b7f41756374696f6e206e6f74207374617274656400000000000000000000000000600082015250565b7f4f776e65722063616e6e6f742062696400000000000000000000000000000000600082015250565b7f41756374696f6e20656e64656400000000000000000000000000000000000000600082015250565b7f546f6b656e20646f6573206e6f742062656c6f6e6720746f206f776e65720000600082015250565b61174b8161143b565b811461175657600080fd5b50565b6117628161144d565b811461176d57600080fd5b50565b61177981611479565b811461178457600080fd5b5056fea264697066735822122053a952cd64d1145e1bf8c1e4e975fc471703b7adb8f1e3252a0905a922eb834f64736f6c63430008060033",
  "immutableReferences": {},
  "source": "pragma solidity 0.8.6;\n\nimport \"./ERC20TestToken.sol\";\nimport \"./ERC721TestNFT.sol\";\n\n\ncontract AuctionContract{\n\n    address public owner;\n    uint public startBlock;\n    uint public endBlock;\n    string public ipfsHash;\n    uint public tokenId;\n    \n    address public deployerAddress;\n    \n    ERC20TestToken erc20Token;\n    ERC721TestNFT erc721NFT;\n\n    address public highestBidderAddress;\n    mapping(address => uint256) public fundsByBidder;\n    uint public highestBindingBid;\n    \n    //Flag to allow same smart contract to be reinitialized for another bid\n    bool public newAuctionReady = true;\n\n    bool auctionComplete = false;\n\n//Event recording for all bids placed even if they might not be accepted\n event LogBid(address bidder, uint bid, address highestBidder, uint highestBid);\n\n    constructor()  {\n        deployerAddress = msg.sender;\n    }\n\n\nfunction Auction(address _owner, address erc20TokenAddress, address erc721Address , uint _duration, uint minBid, uint _tokenId) isDeployer public {\n        require(newAuctionReady, \"Another Auction in progress\");\n        require(_duration >= 60, \"Duration for Auction cannot be less than a minute\") ;\n        newAuctionReady = false;\n        auctionComplete = false;\n        erc20Token = ERC20TestToken(erc20TokenAddress);\n        erc721NFT = ERC721TestNFT(erc721Address);\n        require(erc721NFT.ownerOf(_tokenId) == _owner, \"Token does not belong to owner\");\n        owner = _owner;\n        startBlock = block.timestamp ;\n        endBlock = startBlock + _duration;\n        highestBindingBid = minBid;\n        highestBidderAddress = owner;\n        tokenId = _tokenId;\n}\n\n\nfunction placeBid(uint bidAmount)\n        payable\n        afterStart\n        beforeEnd\n        notOwner public\n        returns (bool success)\n    {\n            //Emit the event for logging of bids\n            emit LogBid(msg.sender, bidAmount, highestBidderAddress, highestBindingBid);\n            require(highestBindingBid < bidAmount, \"Bid Lower than or equal to highest bid\");\n            require(erc20Token.balanceOf(msg.sender) >= bidAmount, \"Balance not present\");\n            //Need to improve using Allowance for approve/allow flows for ERC20 token\n            highestBindingBid = bidAmount;\n            highestBidderAddress = msg.sender;\n            return true;\n    }\n\nfunction endBid()\n        isDeployer public\n        returns(bool success){\n            //Transfer money to owner\n            erc20Token.transferFrom(highestBidderAddress, owner , highestBindingBid);\n            erc721NFT.transferFrom(owner, highestBidderAddress, tokenId);\n            auctionComplete = true;\n            newAuctionReady = true;\n            return true;\n        }\n\nmodifier afterStart() {\n        require(block.timestamp >= startBlock, \"Auction not started\");\n        _;\n    }\n\n    modifier beforeEnd(){\n        require(block.timestamp <= endBlock, \"Auction time ended\");\n        require(auctionComplete == false, \"Auction ended\");\n        _;\n    }\n\n    \n\n    modifier notOwner {\n        require(msg.sender != owner, \"Owner cannot bid\");\n        _;\n    }\n    \n    modifier notDeployer {\n        require(msg.sender != deployerAddress, \"Contract Deployer cannot bid\");\n        _;\n    }\n\n    modifier isDeployer {\n        require(msg.sender == deployerAddress, \"Not the owner\");\n        _;\n    }\n\n\n\n}",
  "sourcePath": "/Users/thomas/codebase/nft-token-sale/smart-contract/contracts/AuctionContract.sol",
  "compiler": {
    "name": "solc",
    "version": "0.8.6+commit.11564f7e.Emscripten.clang"
  },
  "schemaVersion": "3.4.2",
  "updatedAt": "2021-08-01T21:16:45.839Z",
  "networkType": "ethereum",
  "devdoc": {
    "kind": "dev",
    "methods": {},
    "version": 1
  },
  "userdoc": {
    "kind": "user",
    "methods": {},
    "version": 1
  }
}