{
  "contractName": "AuctionContract",
  "abi": [
    {
      "inputs": [],
      "name": "bidIncrement",
      "outputs": [
        {
          "internalType": "uint256",
          "name": "",
          "type": "uint256"
        }
      ],
      "stateMutability": "view",
      "type": "function"
    },
    {
      "inputs": [],
      "name": "endBlock",
      "outputs": [
        {
          "internalType": "uint256",
          "name": "",
          "type": "uint256"
        }
      ],
      "stateMutability": "view",
      "type": "function"
    },
    {
      "inputs": [
        {
          "internalType": "address",
          "name": "",
          "type": "address"
        }
      ],
      "name": "fundsByBidder",
      "outputs": [
        {
          "internalType": "uint256",
          "name": "",
          "type": "uint256"
        }
      ],
      "stateMutability": "view",
      "type": "function"
    },
    {
      "inputs": [],
      "name": "highestBidder",
      "outputs": [
        {
          "internalType": "address",
          "name": "",
          "type": "address"
        }
      ],
      "stateMutability": "view",
      "type": "function"
    },
    {
      "inputs": [],
      "name": "highestBindingBid",
      "outputs": [
        {
          "internalType": "uint256",
          "name": "",
          "type": "uint256"
        }
      ],
      "stateMutability": "view",
      "type": "function"
    },
    {
      "inputs": [],
      "name": "ipfsHash",
      "outputs": [
        {
          "internalType": "string",
          "name": "",
          "type": "string"
        }
      ],
      "stateMutability": "view",
      "type": "function"
    },
    {
      "inputs": [],
      "name": "owner",
      "outputs": [
        {
          "internalType": "address",
          "name": "",
          "type": "address"
        }
      ],
      "stateMutability": "view",
      "type": "function"
    },
    {
      "inputs": [],
      "name": "startBlock",
      "outputs": [
        {
          "internalType": "uint256",
          "name": "",
          "type": "uint256"
        }
      ],
      "stateMutability": "view",
      "type": "function"
    },
    {
      "inputs": [
        {
          "internalType": "address",
          "name": "_owner",
          "type": "address"
        },
        {
          "internalType": "address",
          "name": "erc20TokenAddress",
          "type": "address"
        },
        {
          "internalType": "address",
          "name": "erc721Address",
          "type": "address"
        },
        {
          "internalType": "uint256",
          "name": "_startBlock",
          "type": "uint256"
        },
        {
          "internalType": "uint256",
          "name": "_endBlock",
          "type": "uint256"
        }
      ],
      "name": "Auction",
      "outputs": [],
      "stateMutability": "nonpayable",
      "type": "function"
    },
    {
      "inputs": [],
      "name": "placeBid",
      "outputs": [
        {
          "internalType": "bool",
          "name": "success",
          "type": "bool"
        }
      ],
      "stateMutability": "payable",
      "type": "function"
    },
    {
      "inputs": [],
      "name": "endBid",
      "outputs": [
        {
          "internalType": "bool",
          "name": "success",
          "type": "bool"
        }
      ],
      "stateMutability": "nonpayable",
      "type": "function"
    }
  ],
  "bytecode": "0x60806040526000600a60006101000a81548160ff02191690831515021790555034801561002b57600080fd5b50610e1c8061003b6000396000f3fe60806040526004361061009c5760003560e01c806391f901571161006457806391f9015714610176578063b3cc167a146101a1578063c623674f146101cc578063ce10cf80146101f7578063ecfc7ecc14610234578063f5b56c56146102525761009c565b8063083c6323146100a157806348cd4cb1146100cc5780637e81c3a8146100f75780638bae720b146101205780638da5cb5b1461014b575b600080fd5b3480156100ad57600080fd5b506100b661027d565b6040516100c39190610b21565b60405180910390f35b3480156100d857600080fd5b506100e1610283565b6040516100ee9190610b21565b60405180910390f35b34801561010357600080fd5b5061011e600480360381019061011991906107d0565b610289565b005b34801561012c57600080fd5b50610135610454565b60405161014291906109e4565b60405180910390f35b34801561015757600080fd5b50610160610507565b60405161016d91906109c9565b60405180910390f35b34801561018257600080fd5b5061018b61052b565b60405161019891906109c9565b60405180910390f35b3480156101ad57600080fd5b506101b6610551565b6040516101c39190610b21565b60405180910390f35b3480156101d857600080fd5b506101e1610557565b6040516101ee91906109ff565b60405180910390f35b34801561020357600080fd5b5061021e600480360381019061021991906107a3565b6105e5565b60405161022b9190610b21565b60405180910390f35b61023c6105fd565b60405161024991906109e4565b60405180910390f35b34801561025e57600080fd5b50610267610773565b6040516102749190610b21565b60405180910390f35b60025481565b60015481565b808210156102cc576040517f08c379a00000000000000000000000000000000000000000000000000000000081526004016102c390610b01565b60405180910390fd5b43821061030e576040517f08c379a000000000000000000000000000000000000000000000000000000000815260040161030590610a81565b60405180910390fd5b600073ffffffffffffffffffffffffffffffffffffffff168573ffffffffffffffffffffffffffffffffffffffff161461037d576040517f08c379a000000000000000000000000000000000000000000000000000000000815260040161037490610a21565b60405180910390fd5b83600560006101000a81548173ffffffffffffffffffffffffffffffffffffffff021916908373ffffffffffffffffffffffffffffffffffffffff16021790555082600660006101000a81548173ffffffffffffffffffffffffffffffffffffffff021916908373ffffffffffffffffffffffffffffffffffffffff160217905550846000806101000a81548173ffffffffffffffffffffffffffffffffffffffff021916908373ffffffffffffffffffffffffffffffffffffffff16021790555081600181905550806002819055505050505050565b60008060009054906101000a900473ffffffffffffffffffffffffffffffffffffffff1673ffffffffffffffffffffffffffffffffffffffff163373ffffffffffffffffffffffffffffffffffffffff16146104e5576040517f08c379a00000000000000000000000000000000000000000000000000000000081526004016104dc90610a41565b60405180910390fd5b6001600a60006101000a81548160ff0219169083151502179055506001905090565b60008054906101000a900473ffffffffffffffffffffffffffffffffffffffff1681565b600760009054906101000a900473ffffffffffffffffffffffffffffffffffffffff1681565b60045481565b6003805461056490610bd3565b80601f016020809104026020016040519081016040528092919081815260200182805461059090610bd3565b80156105dd5780601f106105b2576101008083540402835291602001916105dd565b820191906000526020600020905b8154815290600101906020018083116105c057829003601f168201915b505050505081565b60086020528060005260406000206000915090505481565b60006001544310610643576040517f08c379a000000000000000000000000000000000000000000000000000000000815260040161063a90610aa1565b60405180910390fd5b6002544311610687576040517f08c379a000000000000000000000000000000000000000000000000000000000815260040161067e90610a61565b60405180910390fd5b60001515600a60009054906101000a900460ff161515146106dd576040517f08c379a00000000000000000000000000000000000000000000000000000000081526004016106d490610ae1565b60405180910390fd5b60008054906101000a900473ffffffffffffffffffffffffffffffffffffffff1673ffffffffffffffffffffffffffffffffffffffff163373ffffffffffffffffffffffffffffffffffffffff16141561076c576040517f08c379a000000000000000000000000000000000000000000000000000000000815260040161076390610ac1565b60405180910390fd5b6001905090565b60095481565b60008135905061078881610db8565b92915050565b60008135905061079d81610dcf565b92915050565b6000602082840312156107b9576107b8610c34565b5b60006107c784828501610779565b91505092915050565b600080600080600060a086880312156107ec576107eb610c34565b5b60006107fa88828901610779565b955050602061080b88828901610779565b945050604061081c88828901610779565b935050606061082d8882890161078e565b925050608061083e8882890161078e565b9150509295509295909350565b61085481610b58565b82525050565b61086381610b6a565b82525050565b600061087482610b3c565b61087e8185610b47565b935061088e818560208601610ba0565b61089781610c39565b840191505092915050565b60006108af600d83610b47565b91506108ba82610c4a565b602082019050919050565b60006108d2600d83610b47565b91506108dd82610c73565b602082019050919050565b60006108f5601283610b47565b915061090082610c9c565b602082019050919050565b6000610918601283610b47565b915061092382610cc5565b602082019050919050565b600061093b601383610b47565b915061094682610cee565b602082019050919050565b600061095e601083610b47565b915061096982610d17565b602082019050919050565b6000610981600d83610b47565b915061098c82610d40565b602082019050919050565b60006109a4602783610b47565b91506109af82610d69565b604082019050919050565b6109c381610b96565b82525050565b60006020820190506109de600083018461084b565b92915050565b60006020820190506109f9600083018461085a565b92915050565b60006020820190508181036000830152610a198184610869565b905092915050565b60006020820190508181036000830152610a3a816108a2565b9050919050565b60006020820190508181036000830152610a5a816108c5565b9050919050565b60006020820190508181036000830152610a7a816108e8565b9050919050565b60006020820190508181036000830152610a9a8161090b565b9050919050565b60006020820190508181036000830152610aba8161092e565b9050919050565b60006020820190508181036000830152610ada81610951565b9050919050565b60006020820190508181036000830152610afa81610974565b9050919050565b60006020820190508181036000830152610b1a81610997565b9050919050565b6000602082019050610b3660008301846109ba565b92915050565b600081519050919050565b600082825260208201905092915050565b6000610b6382610b76565b9050919050565b60008115159050919050565b600073ffffffffffffffffffffffffffffffffffffffff82169050919050565b6000819050919050565b60005b83811015610bbe578082015181840152602081019050610ba3565b83811115610bcd576000848401525b50505050565b60006002820490506001821680610beb57607f821691505b60208210811415610bff57610bfe610c05565b5b50919050565b7f4e487b7100000000000000000000000000000000000000000000000000000000600052602260045260246000fd5b600080fd5b6000601f19601f8301169050919050565b7f496e76616c6964204f776e657200000000000000000000000000000000000000600082015250565b7f4e6f7420746865206f776e657200000000000000000000000000000000000000600082015250565b7f41756374696f6e2074696d6520656e6465640000000000000000000000000000600082015250565b7f496e76616c69642073746172742074696d650000000000000000000000000000600082015250565b7f41756374696f6e206e6f74207374617274656400000000000000000000000000600082015250565b7f4f776e65722063616e6e6f742062696400000000000000000000000000000000600082015250565b7f41756374696f6e20656e64656400000000000000000000000000000000000000600082015250565b7f53746172742074696d652063616e6e6f74206265206d6f7265207468616e206560008201527f6e642074696d6500000000000000000000000000000000000000000000000000602082015250565b610dc181610b58565b8114610dcc57600080fd5b50565b610dd881610b96565b8114610de357600080fd5b5056fea2646970667358221220f05f89b161895dce1085d5fb92ee8056cdcd793d802ee3c92dd50254c7bb027c64736f6c63430008060033",
  "immutableReferences": {},
  "source": "pragma solidity 0.8.6;\n\nimport \"./ERC20TestToken.sol\";\nimport \"./ERC721TestNFT.sol\";\n\n\ncontract AuctionContract{\n\n    address public owner;\n    uint public startBlock;\n    uint public endBlock;\n    string public ipfsHash;\n    uint public bidIncrement;\n\n    ERC20TestToken erc20Token;\n    ERC721TestNFT erc721NFT;\n\n    address public highestBidder;\n    mapping(address => uint256) public fundsByBidder;\n    uint public highestBindingBid;\n\n    bool auctionComplete = false;\n\n\n\n\n\nfunction Auction(address _owner, address erc20TokenAddress, address erc721Address , uint _startBlock, uint _endBlock) public {\n        require(_startBlock >= _endBlock, \"Start time cannot be more than end time\") ;\n        require (_startBlock < block.number, \"Invalid start time\") ;\n        require (_owner == address(0), \"Invalid Owner\") ;\n        erc20Token = ERC20TestToken(erc20TokenAddress);\n        erc721NFT = ERC721TestNFT(erc721Address);\n        owner = _owner;\n        startBlock = _startBlock;\n        endBlock = _endBlock;\n}\n\n\nfunction placeBid()\n        payable\n        afterStart\n        beforeEnd\n        notOwner public\n        returns (bool success)\n    {\n            //Implementation to be added\n            return true;\n    }\n\nfunction endBid()\n        isOwner public\n        returns(bool success){\n            auctionComplete = true;\n            return true;\n        }\n\nmodifier afterStart() {\n        require(block.number < startBlock, \"Auction not started\");\n        _;\n    }\n\n    modifier beforeEnd(){\n        require(block.number > endBlock, \"Auction time ended\");\n        require(auctionComplete == false, \"Auction ended\");\n        _;\n    }\n\n    modifier notOwner {\n        require(msg.sender != owner, \"Owner cannot bid\");\n        _;\n    }\n\n    modifier isOwner {\n        require(msg.sender == owner, \"Not the owner\");\n        _;\n    }\n\n\n\n}",
  "sourcePath": "/Users/thomas/codebase/nft-token-sale/smart-contract/contracts/AuctionContract.sol",
  "compiler": {
    "name": "solc",
    "version": "0.8.6+commit.11564f7e.Emscripten.clang"
  },
  "schemaVersion": "3.4.2",
  "updatedAt": "2021-08-01T00:21:41.626Z",
  "devdoc": {
    "kind": "dev",
    "methods": {},
    "version": 1
  },
  "userdoc": {
    "kind": "user",
    "methods": {},
    "version": 1
  }
}