{
  "contractName": "ERC20TestToken",
  "abi": [
    {
      "inputs": [],
      "stateMutability": "payable",
      "type": "constructor",
      "payable": true
    },
    {
      "inputs": [],
      "name": "name",
      "outputs": [
        {
          "internalType": "string",
          "name": "",
          "type": "string"
        }
      ],
      "stateMutability": "view",
      "type": "function",
      "constant": true
    },
    {
      "inputs": [],
      "name": "symbol",
      "outputs": [
        {
          "internalType": "string",
          "name": "",
          "type": "string"
        }
      ],
      "stateMutability": "view",
      "type": "function",
      "constant": true
    },
    {
      "inputs": [],
      "name": "totalSupply",
      "outputs": [
        {
          "internalType": "uint256",
          "name": "",
          "type": "uint256"
        }
      ],
      "stateMutability": "view",
      "type": "function",
      "constant": true
    },
    {
      "inputs": [
        {
          "internalType": "address",
          "name": "tokenOwner",
          "type": "address"
        }
      ],
      "name": "balanceOf",
      "outputs": [
        {
          "internalType": "uint256",
          "name": "",
          "type": "uint256"
        }
      ],
      "stateMutability": "view",
      "type": "function",
      "constant": true
    },
    {
      "inputs": [
        {
          "internalType": "address",
          "name": "sender",
          "type": "address"
        },
        {
          "internalType": "address",
          "name": "receiver",
          "type": "address"
        },
        {
          "internalType": "uint256",
          "name": "numTokens",
          "type": "uint256"
        }
      ],
      "name": "transferFrom",
      "outputs": [
        {
          "internalType": "bool",
          "name": "",
          "type": "bool"
        }
      ],
      "stateMutability": "payable",
      "type": "function",
      "payable": true
    }
  ],
  "bytecode": "0x6080604052678ac7230489e800006002556002546000803373ffffffffffffffffffffffffffffffffffffffff1673ffffffffffffffffffffffffffffffffffffffff16815260200190815260200160002081905550610724806100646000396000f3fe60806040526004361061004a5760003560e01c806306fdde031461004f57806318160ddd1461007a57806323b872dd146100a557806370a08231146100d557806395d89b4114610112575b600080fd5b34801561005b57600080fd5b5061006461013d565b60405161007191906104ee565b60405180910390f35b34801561008657600080fd5b5061008f610176565b60405161009c9190610510565b60405180910390f35b6100bf60048036038101906100ba9190610429565b610180565b6040516100cc91906104d3565b60405180910390f35b3480156100e157600080fd5b506100fc60048036038101906100f791906103fc565b6102fe565b6040516101099190610510565b60405180910390f35b34801561011e57600080fd5b50610127610346565b60405161013491906104ee565b60405180910390f35b6040518060400160405280600c81526020017f45524354657374546f6b656e000000000000000000000000000000000000000081525081565b6000600254905090565b60008060008573ffffffffffffffffffffffffffffffffffffffff1673ffffffffffffffffffffffffffffffffffffffff168152602001908152602001600020548211156101cd57600080fd5b61021e826000808773ffffffffffffffffffffffffffffffffffffffff1673ffffffffffffffffffffffffffffffffffffffff1681526020019081526020016000205461037f90919063ffffffff16565b6000808673ffffffffffffffffffffffffffffffffffffffff1673ffffffffffffffffffffffffffffffffffffffff168152602001908152602001600020819055506102b1826000808673ffffffffffffffffffffffffffffffffffffffff1673ffffffffffffffffffffffffffffffffffffffff168152602001908152602001600020546103a690919063ffffffff16565b6000808573ffffffffffffffffffffffffffffffffffffffff1673ffffffffffffffffffffffffffffffffffffffff16815260200190815260200160002081905550600190509392505050565b60008060008373ffffffffffffffffffffffffffffffffffffffff1673ffffffffffffffffffffffffffffffffffffffff168152602001908152602001600020549050919050565b6040518060400160405280600781526020017f455243544553540000000000000000000000000000000000000000000000000081525081565b6000828211156103925761039161064c565b5b818361039e919061059d565b905092915050565b60008082846103b59190610547565b9050838110156103c8576103c761064c565b5b8091505092915050565b6000813590506103e1816106c0565b92915050565b6000813590506103f6816106d7565b92915050565b600060208284031215610412576104116106aa565b5b6000610420848285016103d2565b91505092915050565b600080600060608486031215610442576104416106aa565b5b6000610450868287016103d2565b9350506020610461868287016103d2565b9250506040610472868287016103e7565b9150509250925092565b610485816105e3565b82525050565b60006104968261052b565b6104a08185610536565b93506104b0818560208601610619565b6104b9816106af565b840191505092915050565b6104cd8161060f565b82525050565b60006020820190506104e8600083018461047c565b92915050565b60006020820190508181036000830152610508818461048b565b905092915050565b600060208201905061052560008301846104c4565b92915050565b600081519050919050565b600082825260208201905092915050565b60006105528261060f565b915061055d8361060f565b9250827fffffffffffffffffffffffffffffffffffffffffffffffffffffffffffffffff038211156105925761059161067b565b5b828201905092915050565b60006105a88261060f565b91506105b38361060f565b9250828210156105c6576105c561067b565b5b828203905092915050565b60006105dc826105ef565b9050919050565b60008115159050919050565b600073ffffffffffffffffffffffffffffffffffffffff82169050919050565b6000819050919050565b60005b8381101561063757808201518184015260208101905061061c565b83811115610646576000848401525b50505050565b7f4e487b7100000000000000000000000000000000000000000000000000000000600052600160045260246000fd5b7f4e487b7100000000000000000000000000000000000000000000000000000000600052601160045260246000fd5b600080fd5b6000601f19601f8301169050919050565b6106c9816105d1565b81146106d457600080fd5b50565b6106e08161060f565b81146106eb57600080fd5b5056fea264697066735822122066025763161591956ff21d4f90c76bae7e483c7f5aa533d5c6fa816ea1a6c4f364736f6c63430008060033",
  "immutableReferences": {},
  "source": "pragma solidity 0.8.6;\n\nimport './IERC20.sol';\nimport './SafeMath.sol';\n\ncontract ERC20TestToken is IERC20 {\n\n\n    string public constant name = \"ERCTestToken\";\n\n    string public constant symbol = \"ERCTEST\";\n\n    \n\n\n    mapping(address => uint256) balances;\n\n\n    mapping(address => mapping (address => uint256)) allowed;\n\n\n    uint256 totalSupply_ = 10 ether;\n\n\n    using SafeMath for uint256;\n\n\n    constructor()  payable{\n\n    balances[msg.sender] = totalSupply_;\n\n    }\n\n\n    function totalSupply() public override view returns (uint256) {\n\n    return totalSupply_;\n\n    }\n\n\n    function balanceOf(address tokenOwner) public override view returns (uint256) {\n\n        return balances[tokenOwner];\n\n    }\n\n\n    function transferFrom(address sender, address receiver, uint256 numTokens) public  payable override returns (bool) {\n\n        require(numTokens <= balances[sender]);\n\n        balances[sender] = balances[sender].sub(numTokens);\n\n        balances[receiver] = balances[receiver].add(numTokens);\n\n        return true;\n\n    }\n    \n    \n\n\n    \n\n\n    \n\n}",
  "sourcePath": "/Users/thomas/codebase/nft-token-sale/smart-contract/contracts/ERC20TestToken.sol",
  "compiler": {
    "name": "solc",
    "version": "0.8.6+commit.11564f7e.Emscripten.clang"
  },
  "schemaVersion": "3.4.2",
  "updatedAt": "2021-08-02T04:49:06.491Z",
  "networkType": "ethereum",
  "devdoc": {
    "kind": "dev",
    "methods": {},
    "version": 1
  },
  "userdoc": {
    "kind": "user",
    "methods": {},
    "version": 1
  }
}