{
  "contractName": "ERC20TestToken",
  "abi": [
    {
      "inputs": [],
      "stateMutability": "payable",
      "type": "constructor"
    },
    {
      "inputs": [],
      "name": "name",
      "outputs": [
        {
          "internalType": "string",
          "name": "",
          "type": "string"
        }
      ],
      "stateMutability": "view",
      "type": "function"
    },
    {
      "inputs": [],
      "name": "symbol",
      "outputs": [
        {
          "internalType": "string",
          "name": "",
          "type": "string"
        }
      ],
      "stateMutability": "view",
      "type": "function"
    },
    {
      "inputs": [],
      "name": "totalSupply",
      "outputs": [
        {
          "internalType": "uint256",
          "name": "",
          "type": "uint256"
        }
      ],
      "stateMutability": "view",
      "type": "function"
    },
    {
      "inputs": [
        {
          "internalType": "address",
          "name": "tokenOwner",
          "type": "address"
        }
      ],
      "name": "balanceOf",
      "outputs": [
        {
          "internalType": "uint256",
          "name": "",
          "type": "uint256"
        }
      ],
      "stateMutability": "view",
      "type": "function"
    },
    {
      "inputs": [
        {
          "internalType": "address",
          "name": "receiver",
          "type": "address"
        },
        {
          "internalType": "uint256",
          "name": "numTokens",
          "type": "uint256"
        }
      ],
      "name": "transfer",
      "outputs": [
        {
          "internalType": "bool",
          "name": "",
          "type": "bool"
        }
      ],
      "stateMutability": "nonpayable",
      "type": "function"
    }
  ],
  "bytecode": "0x6080604052678ac7230489e800006002556002546000803373ffffffffffffffffffffffffffffffffffffffff1673ffffffffffffffffffffffffffffffffffffffff168152602001908152602001600020819055506106e9806100646000396000f3fe608060405234801561001057600080fd5b50600436106100575760003560e01c806306fdde031461005c57806318160ddd1461007a57806370a082311461009857806395d89b41146100c8578063a9059cbb146100e6575b600080fd5b610064610116565b60405161007191906104b3565b60405180910390f35b61008261014f565b60405161008f91906104d5565b60405180910390f35b6100b260048036038101906100ad91906103d4565b610159565b6040516100bf91906104d5565b60405180910390f35b6100d06101a1565b6040516100dd91906104b3565b60405180910390f35b61010060048036038101906100fb9190610401565b6101da565b60405161010d9190610498565b60405180910390f35b6040518060400160405280600c81526020017f45524354657374546f6b656e000000000000000000000000000000000000000081525081565b6000600254905090565b60008060008373ffffffffffffffffffffffffffffffffffffffff1673ffffffffffffffffffffffffffffffffffffffff168152602001908152602001600020549050919050565b6040518060400160405280600781526020017f455243544553540000000000000000000000000000000000000000000000000081525081565b60008060003373ffffffffffffffffffffffffffffffffffffffff1673ffffffffffffffffffffffffffffffffffffffff1681526020019081526020016000205482111561022757600080fd5b610278826000803373ffffffffffffffffffffffffffffffffffffffff1673ffffffffffffffffffffffffffffffffffffffff1681526020019081526020016000205461035790919063ffffffff16565b6000803373ffffffffffffffffffffffffffffffffffffffff1673ffffffffffffffffffffffffffffffffffffffff1681526020019081526020016000208190555061030b826000808673ffffffffffffffffffffffffffffffffffffffff1673ffffffffffffffffffffffffffffffffffffffff1681526020019081526020016000205461037e90919063ffffffff16565b6000808573ffffffffffffffffffffffffffffffffffffffff1673ffffffffffffffffffffffffffffffffffffffff168152602001908152602001600020819055506001905092915050565b60008282111561036a57610369610611565b5b81836103769190610562565b905092915050565b600080828461038d919061050c565b9050838110156103a05761039f610611565b5b8091505092915050565b6000813590506103b981610685565b92915050565b6000813590506103ce8161069c565b92915050565b6000602082840312156103ea576103e961066f565b5b60006103f8848285016103aa565b91505092915050565b600080604083850312156104185761041761066f565b5b6000610426858286016103aa565b9250506020610437858286016103bf565b9150509250929050565b61044a816105a8565b82525050565b600061045b826104f0565b61046581856104fb565b93506104758185602086016105de565b61047e81610674565b840191505092915050565b610492816105d4565b82525050565b60006020820190506104ad6000830184610441565b92915050565b600060208201905081810360008301526104cd8184610450565b905092915050565b60006020820190506104ea6000830184610489565b92915050565b600081519050919050565b600082825260208201905092915050565b6000610517826105d4565b9150610522836105d4565b9250827fffffffffffffffffffffffffffffffffffffffffffffffffffffffffffffffff0382111561055757610556610640565b5b828201905092915050565b600061056d826105d4565b9150610578836105d4565b92508282101561058b5761058a610640565b5b828203905092915050565b60006105a1826105b4565b9050919050565b60008115159050919050565b600073ffffffffffffffffffffffffffffffffffffffff82169050919050565b6000819050919050565b60005b838110156105fc5780820151818401526020810190506105e1565b8381111561060b576000848401525b50505050565b7f4e487b7100000000000000000000000000000000000000000000000000000000600052600160045260246000fd5b7f4e487b7100000000000000000000000000000000000000000000000000000000600052601160045260246000fd5b600080fd5b6000601f19601f8301169050919050565b61068e81610596565b811461069957600080fd5b50565b6106a5816105d4565b81146106b057600080fd5b5056fea26469706673582212205eba69dd0e1af311cf2999b712a8dd24e59a3f797b863a3832f7bd1305c6b66564736f6c63430008060033",
  "immutableReferences": {},
  "source": "pragma solidity 0.8.6;\n\nimport './IERC20.sol';\nimport './SafeMath.sol';\n\ncontract ERC20TestToken is IERC20 {\n\n\n    string public constant name = \"ERCTestToken\";\n\n    string public constant symbol = \"ERCTEST\";\n\n    \n\n\n    mapping(address => uint256) balances;\n\n\n    mapping(address => mapping (address => uint256)) allowed;\n\n\n    uint256 totalSupply_ = 10 ether;\n\n\n    using SafeMath for uint256;\n\n\n    constructor()  payable{\n\n    balances[msg.sender] = totalSupply_;\n\n    }\n\n\n    function totalSupply() public override view returns (uint256) {\n\n    return totalSupply_;\n\n    }\n\n\n    function balanceOf(address tokenOwner) public override view returns (uint256) {\n\n        return balances[tokenOwner];\n\n    }\n\n\n    function transfer(address receiver, uint256 numTokens) public  override returns (bool) {\n\n        require(numTokens <= balances[msg.sender]);\n\n        balances[msg.sender] = balances[msg.sender].sub(numTokens);\n\n        balances[receiver] = balances[receiver].add(numTokens);\n\n        return true;\n\n    }\n    \n    \n\n\n    \n\n\n    \n\n}",
  "sourcePath": "/Users/thomas/codebase/nft-token-sale/smart-contract/contracts/ERC20TestToken.sol",
  "compiler": {
    "name": "solc",
    "version": "0.8.6+commit.11564f7e.Emscripten.clang"
  },
  "schemaVersion": "3.4.2",
  "updatedAt": "2021-07-31T22:24:45.736Z",
  "devdoc": {
    "kind": "dev",
    "methods": {},
    "version": 1
  },
  "userdoc": {
    "kind": "user",
    "methods": {},
    "version": 1
  }
}