{
  "contractName": "ERC721TestNFT",
  "abi": [
    {
      "inputs": [],
      "stateMutability": "nonpayable",
      "type": "constructor"
    },
    {
      "inputs": [
        {
          "internalType": "address",
          "name": "_from",
          "type": "address"
        },
        {
          "internalType": "address",
          "name": "_to",
          "type": "address"
        },
        {
          "internalType": "uint256",
          "name": "_tokenId",
          "type": "uint256"
        }
      ],
      "name": "transferFrom",
      "outputs": [],
      "stateMutability": "nonpayable",
      "type": "function"
    },
    {
      "inputs": [
        {
          "internalType": "address",
          "name": "_owner",
          "type": "address"
        }
      ],
      "name": "balanceOf",
      "outputs": [
        {
          "internalType": "uint256",
          "name": "",
          "type": "uint256"
        }
      ],
      "stateMutability": "view",
      "type": "function"
    },
    {
      "inputs": [
        {
          "internalType": "uint256",
          "name": "_tokenId",
          "type": "uint256"
        }
      ],
      "name": "ownerOf",
      "outputs": [
        {
          "internalType": "address",
          "name": "_owner",
          "type": "address"
        }
      ],
      "stateMutability": "view",
      "type": "function"
    },
    {
      "inputs": [
        {
          "internalType": "address",
          "name": "to",
          "type": "address"
        },
        {
          "internalType": "uint256",
          "name": "tokenId",
          "type": "uint256"
        }
      ],
      "name": "_mint",
      "outputs": [],
      "stateMutability": "payable",
      "type": "function"
    }
  ],
  "bytecode": "0x60806040523480156200001157600080fd5b506040518060400160405280600781526020017f546573744e465400000000000000000000000000000000000000000000000000815250600090805190602001906200005f929190620000b4565b506040518060400160405280600481526020017f544e46540000000000000000000000000000000000000000000000000000000081525060019080519060200190620000ad929190620000b4565b50620001c9565b828054620000c29062000164565b90600052602060002090601f016020900481019282620000e6576000855562000132565b82601f106200010157805160ff191683800117855562000132565b8280016001018555821562000132579182015b828111156200013157825182559160200191906001019062000114565b5b50905062000141919062000145565b5090565b5b808211156200016057600081600090555060010162000146565b5090565b600060028204905060018216806200017d57607f821691505b602082108114156200019457620001936200019a565b5b50919050565b7f4e487b7100000000000000000000000000000000000000000000000000000000600052602260045260246000fd5b610f4480620001d96000396000f3fe60806040526004361061003f5760003560e01c806323b872dd146100445780634e6ec2471461006d5780636352211e1461008957806370a08231146100c6575b600080fd5b34801561005057600080fd5b5061006b600480360381019061006691906109a7565b610103565b005b610087600480360381019061008291906109fa565b6102ce565b005b34801561009557600080fd5b506100b060048036038101906100ab9190610a3a565b6103ee565b6040516100bd9190610b7a565b60405180910390f35b3480156100d257600080fd5b506100ed60048036038101906100e8919061097a565b61049b565b6040516100fa9190610c75565b60405180910390f35b80600073ffffffffffffffffffffffffffffffffffffffff166002600083815260200190815260200160002060009054906101000a900473ffffffffffffffffffffffffffffffffffffffff1673ffffffffffffffffffffffffffffffffffffffff1614156101a7576040517f08c379a000000000000000000000000000000000000000000000000000000000815260040161019e90610bb5565b60405180910390fd5b60006002600084815260200190815260200160002060009054906101000a900473ffffffffffffffffffffffffffffffffffffffff1690508473ffffffffffffffffffffffffffffffffffffffff168173ffffffffffffffffffffffffffffffffffffffff161461024d576040517f08c379a000000000000000000000000000000000000000000000000000000000815260040161024490610c55565b60405180910390fd5b600073ffffffffffffffffffffffffffffffffffffffff168473ffffffffffffffffffffffffffffffffffffffff1614156102bd576040517f08c379a00000000000000000000000000000000000000000000000000000000081526004016102b490610c35565b60405180910390fd5b6102c7848461051c565b5050505050565b600073ffffffffffffffffffffffffffffffffffffffff168273ffffffffffffffffffffffffffffffffffffffff16141561033e576040517f08c379a000000000000000000000000000000000000000000000000000000000815260040161033590610c15565b60405180910390fd5b600073ffffffffffffffffffffffffffffffffffffffff166002600083815260200190815260200160002060009054906101000a900473ffffffffffffffffffffffffffffffffffffffff1673ffffffffffffffffffffffffffffffffffffffff16146103e0576040517f08c379a00000000000000000000000000000000000000000000000000000000081526004016103d790610bf5565b60405180910390fd5b6103ea828261056d565b5050565b60006002600083815260200190815260200160002060009054906101000a900473ffffffffffffffffffffffffffffffffffffffff169050600073ffffffffffffffffffffffffffffffffffffffff168173ffffffffffffffffffffffffffffffffffffffff161415610496576040517f08c379a000000000000000000000000000000000000000000000000000000000815260040161048d90610bd5565b60405180910390fd5b919050565b60008073ffffffffffffffffffffffffffffffffffffffff168273ffffffffffffffffffffffffffffffffffffffff16141561050c576040517f08c379a000000000000000000000000000000000000000000000000000000000815260040161050390610c35565b60405180910390fd5b61051582610686565b9050919050565b60006002600083815260200190815260200160002060009054906101000a900473ffffffffffffffffffffffffffffffffffffffff16905061055e81836106cf565b6105688383610801565b505050565b600073ffffffffffffffffffffffffffffffffffffffff166002600083815260200190815260200160002060009054906101000a900473ffffffffffffffffffffffffffffffffffffffff1673ffffffffffffffffffffffffffffffffffffffff16146105d957600080fd5b816002600083815260200190815260200160002060006101000a81548173ffffffffffffffffffffffffffffffffffffffff021916908373ffffffffffffffffffffffffffffffffffffffff1602179055506001600360008473ffffffffffffffffffffffffffffffffffffffff1673ffffffffffffffffffffffffffffffffffffffff168152602001908152602001600020600082825461067b9190610ca1565b925050819055505050565b6000600360008373ffffffffffffffffffffffffffffffffffffffff1673ffffffffffffffffffffffffffffffffffffffff168152602001908152602001600020549050919050565b8173ffffffffffffffffffffffffffffffffffffffff166002600083815260200190815260200160002060009054906101000a900473ffffffffffffffffffffffffffffffffffffffff1673ffffffffffffffffffffffffffffffffffffffff1614610770576040517f08c379a000000000000000000000000000000000000000000000000000000000815260040161076790610c55565b60405180910390fd5b6001600360008473ffffffffffffffffffffffffffffffffffffffff1673ffffffffffffffffffffffffffffffffffffffff16815260200190815260200160002060008282546107c09190610cf7565b925050819055506002600082815260200190815260200160002060006101000a81549073ffffffffffffffffffffffffffffffffffffffff02191690555050565b600073ffffffffffffffffffffffffffffffffffffffff166002600083815260200190815260200160002060009054906101000a900473ffffffffffffffffffffffffffffffffffffffff1673ffffffffffffffffffffffffffffffffffffffff16146108a3576040517f08c379a000000000000000000000000000000000000000000000000000000000815260040161089a90610b95565b60405180910390fd5b816002600083815260200190815260200160002060006101000a81548173ffffffffffffffffffffffffffffffffffffffff021916908373ffffffffffffffffffffffffffffffffffffffff1602179055506001600360008473ffffffffffffffffffffffffffffffffffffffff1673ffffffffffffffffffffffffffffffffffffffff16815260200190815260200160002060008282546109459190610ca1565b925050819055505050565b60008135905061095f81610ee0565b92915050565b60008135905061097481610ef7565b92915050565b6000602082840312156109905761098f610d96565b5b600061099e84828501610950565b91505092915050565b6000806000606084860312156109c0576109bf610d96565b5b60006109ce86828701610950565b93505060206109df86828701610950565b92505060406109f086828701610965565b9150509250925092565b60008060408385031215610a1157610a10610d96565b5b6000610a1f85828601610950565b9250506020610a3085828601610965565b9150509250929050565b600060208284031215610a5057610a4f610d96565b5b6000610a5e84828501610965565b91505092915050565b610a7081610d2b565b82525050565b6000610a83602f83610c90565b9150610a8e82610d9b565b604082019050919050565b6000610aa6600b83610c90565b9150610ab182610dea565b602082019050919050565b6000610ac9601383610c90565b9150610ad482610e13565b602082019050919050565b6000610aec600a83610c90565b9150610af782610e3c565b602082019050919050565b6000610b0f600f83610c90565b9150610b1a82610e65565b602082019050919050565b6000610b32601183610c90565b9150610b3d82610e8e565b602082019050919050565b6000610b55600f83610c90565b9150610b6082610eb7565b602082019050919050565b610b7481610d5d565b82525050565b6000602082019050610b8f6000830184610a67565b92915050565b60006020820190508181036000830152610bae81610a76565b9050919050565b60006020820190508181036000830152610bce81610a99565b9050919050565b60006020820190508181036000830152610bee81610abc565b9050919050565b60006020820190508181036000830152610c0e81610adf565b9050919050565b60006020820190508181036000830152610c2e81610b02565b9050919050565b60006020820190508181036000830152610c4e81610b25565b9050919050565b60006020820190508181036000830152610c6e81610b48565b9050919050565b6000602082019050610c8a6000830184610b6b565b92915050565b600082825260208201905092915050565b6000610cac82610d5d565b9150610cb783610d5d565b9250827fffffffffffffffffffffffffffffffffffffffffffffffffffffffffffffffff03821115610cec57610ceb610d67565b5b828201905092915050565b6000610d0282610d5d565b9150610d0d83610d5d565b925082821015610d2057610d1f610d67565b5b828203905092915050565b6000610d3682610d3d565b9050919050565b600073ffffffffffffffffffffffffffffffffffffffff82169050919050565b6000819050919050565b7f4e487b7100000000000000000000000000000000000000000000000000000000600052601160045260246000fd5b600080fd5b7f4e465420444f4553204e4f5420455849535453204f52204953204f574e45442060008201527f425920534f4d454f4e4520454c53450000000000000000000000000000000000602082015250565b7f494e56414c4944204e4654000000000000000000000000000000000000000000600082015250565b7f4e465420444f4553204e4f542045584953545300000000000000000000000000600082015250565b7f4e46542045584953545300000000000000000000000000000000000000000000600082015250565b7f494e56414c494420414444524553530000000000000000000000000000000000600082015250565b7f41444452455353204e4f5420464f554e44000000000000000000000000000000600082015250565b7f494e434f5252454354204f574e45520000000000000000000000000000000000600082015250565b610ee981610d2b565b8114610ef457600080fd5b50565b610f0081610d5d565b8114610f0b57600080fd5b5056fea2646970667358221220a80da621848fd9880869b60a1f43e8441fda84dea025a1018da428d676fad43a64736f6c63430008060033",
  "immutableReferences": {},
  "source": "pragma solidity 0.8.6 ;\n\nimport './IERC721.sol';\nimport './SafeMath.sol';\n\ncontract ERC721TestNFT is IERC721{\n\n    string private _name;\n    string private _symbol;\n    \n mapping (uint256 => address) internal nftIdOwnerMapping;    \n\n mapping (address => uint256) private ownerNFTokenCount;\n\n modifier validNFToken(\n    uint256 _tokenId\n  )\n  {\n    require(nftIdOwnerMapping[_tokenId] != address(0), \"INVALID NFT\");\n    _;\n  }\n\n  constructor () public {\n        _name = \"TestNFT\";\n        _symbol = \"TNFT\";\n }\n\n function transferFrom(\n    address _from,\n    address _to,\n    uint256 _tokenId\n  )\n    external\n    override\n    validNFToken(_tokenId)\n  {\n    address tokenOwner = nftIdOwnerMapping[_tokenId];\n    require(tokenOwner == _from, \"INCORRECT OWNER\");\n    require(_to != address(0), \"ADDRESS NOT FOUND\");\n\n    _transfer(_to, _tokenId);\n  }\n\n  function _transfer(\n    address _to,\n    uint256 _tokenId\n  )\n    internal\n  {\n    address from = nftIdOwnerMapping[_tokenId];\n    _removeNFToken(from, _tokenId);\n    _addNFToken(_to, _tokenId);\n\n  }\n\n  function _removeNFToken(\n    address _from,\n    uint256 _tokenId\n  )\n    internal\n    virtual\n  {\n    require(nftIdOwnerMapping[_tokenId] == _from, \"INCORRECT OWNER\");\n    ownerNFTokenCount[_from] -= 1;\n    delete nftIdOwnerMapping[_tokenId];\n  }\n\n\n  function _addNFToken(\n    address _to,\n    uint256 _tokenId\n  )\n    internal\n    virtual\n  {\n    require(nftIdOwnerMapping[_tokenId] == address(0), \"NFT DOES NOT EXISTS OR IS OWNED BY SOMEONE ELSE\");\n\n    nftIdOwnerMapping[_tokenId] = _to;\n    ownerNFTokenCount[_to] += 1;\n  }\n\n   function _getOwnerNFTCount(\n    address _owner\n  )\n    internal\n    virtual\n    view\n    returns (uint256)\n  {\n    return ownerNFTokenCount[_owner];\n  }\n\n\n   function balanceOf(\n    address _owner\n  )\n    external\n    override\n    view\n    returns (uint256)\n  {\n    require(_owner != address(0), \"ADDRESS NOT FOUND\");\n    return _getOwnerNFTCount(_owner);\n  }\n\n  function _addTokenTo(address to, uint256 tokenId) internal {\n    require(nftIdOwnerMapping[tokenId] == address(0));\n    nftIdOwnerMapping[tokenId] = to;\n    ownerNFTokenCount[to] += 1;\n}\n\n\n\n    function ownerOf(\n    uint256 _tokenId\n  )\n    external\n    override\n    view\n    returns (address _owner)\n  {\n    _owner = nftIdOwnerMapping[_tokenId];\n    require(_owner != address(0), \"NFT DOES NOT EXISTS\");\n  }\n\n  function _mint(address to, uint256 tokenId)  public payable{\n    require(to != address(0), \"INVALID ADDRESS\");\n    require(nftIdOwnerMapping[tokenId] == address(0), \"NFT EXISTS\");\n    _addTokenTo(to, tokenId);\n}\n\n\n\n    \n}",
  "sourcePath": "/Users/thomas/codebase/nft-token-sale/smart-contract/contracts/ERC721TestNFT.sol",
  "compiler": {
    "name": "solc",
    "version": "0.8.6+commit.11564f7e.Emscripten.clang"
  },
  "schemaVersion": "3.4.2",
  "updatedAt": "2021-08-01T00:21:41.629Z",
  "devdoc": {
    "kind": "dev",
    "methods": {
      "balanceOf(address)": {
        "details": "Returns the number of NFTs owned by `_owner`. NFTs assigned to the zero address are considered invalid, and this function throws for queries about the zero address.",
        "params": {
          "_owner": "Address for whom to query the balance."
        },
        "returns": {
          "_0": "Balance of _owner."
        }
      },
      "ownerOf(uint256)": {
        "details": "Returns the address of the owner of the NFT. NFTs assigned to the zero address are considered invalid, and queries about them do throw.",
        "params": {
          "_tokenId": "The identifier for an NFT."
        },
        "returns": {
          "_owner": "Address of _tokenId owner."
        }
      },
      "transferFrom(address,address,uint256)": {
        "details": "Throws unless `msg.sender` is the current owner, an authorized operator, or the approved address for this NFT. Throws if `_from` is not the current owner. Throws if `_to` is the zero address. Throws if `_tokenId` is not a valid NFT.",
        "params": {
          "_from": "The current owner of the NFT.",
          "_to": "The new owner.",
          "_tokenId": "The NFT to transfer."
        }
      }
    },
    "version": 1
  },
  "userdoc": {
    "kind": "user",
    "methods": {
      "balanceOf(address)": {
        "notice": "Count all NFTs assigned to an owner."
      },
      "ownerOf(uint256)": {
        "notice": "Find the owner of an NFT."
      },
      "transferFrom(address,address,uint256)": {
        "notice": "The caller is responsible to confirm that `_to` is capable of receiving NFTs or else they may be permanently lost."
      }
    },
    "version": 1
  }
}